{
  "_format": "hh-sol-artifact-1",
  "contractName": "PredictionFactory",
  "sourceName": "contracts/PredictionFactory.sol",
  "abi": [
    {
      "anonymous": false,
      "inputs": [
        {
          "indexed": true,
          "internalType": "address",
          "name": "market",
          "type": "address"
        },
        {
          "indexed": true,
          "internalType": "address",
          "name": "creator",
          "type": "address"
        },
        {
          "indexed": false,
          "internalType": "string",
          "name": "title",
          "type": "string"
        }
      ],
      "name": "MarketCreated",
      "type": "event"
    },
    {
      "inputs": [
        {
          "internalType": "string",
          "name": "title",
          "type": "string"
        },
        {
          "internalType": "string",
          "name": "description",
          "type": "string"
        },
        {
          "internalType": "uint256",
          "name": "resolutionTimestamp",
          "type": "uint256"
        }
      ],
      "name": "createMarket",
      "outputs": [
        {
          "internalType": "address",
          "name": "market",
          "type": "address"
        }
      ],
      "stateMutability": "payable",
      "type": "function"
    },
    {
      "inputs": [],
      "name": "getAllMarkets",
      "outputs": [
        {
          "internalType": "address[]",
          "name": "",
          "type": "address[]"
        }
      ],
      "stateMutability": "view",
      "type": "function"
    }
  ],
  "bytecode": "0x608060405234801561001057600080fd5b50614445806100206000396000f3fe6080604052600436106200002c5760003560e01c8063b0772d0b1462000031578063f98b77831462000061575b600080fd5b3480156200003e57600080fd5b506200004962000091565b604051620000589190620002cf565b60405180910390f35b6200007862000072366004620003c9565b620000f5565b6040516001600160a01b03909116815260200162000058565b60606000805480602002602001604051908101604052809291908181526020018280548015620000eb57602002820191906000526020600020905b81546001600160a01b03168152600190910190602001808311620000cc575b5050505050905090565b600080845111620001455760405162461bcd60e51b81526020600482015260156024820152745469746c652063616e6e6f7420626520656d70747960581b60448201526064015b60405180910390fd5b6000835111620001985760405162461bcd60e51b815260206004820152601b60248201527f4465736372697074696f6e2063616e6e6f7420626520656d707479000000000060448201526064016200013c565b428211620001e95760405162461bcd60e51b815260206004820181905260248201527f5265736f6c7574696f6e206d75737420626520696e207468652066757475726560448201526064016200013c565b60003033868686604051620001fe90620002c1565b6200020e95949392919062000485565b604051809103906000f0801580156200022b573d6000803e3d6000fd5b50600080546001810182559080527f290decd9548b62a8d60345a988386fc84ba6bc95484008f6362f93160ef3e5630180546001600160a01b0319166001600160a01b03831690811790915560405191935083925033917f399415246711dab8a1b129dbd52f5a8f33ccd156f8bbcb481b900f33cfb3677990620002b1908990620004da565b60405180910390a3509392505050565b613f1980620004f783390190565b6020808252825182820181905260009190848201906040850190845b81811015620003125783516001600160a01b031683529284019291840191600101620002eb565b50909695505050505050565b634e487b7160e01b600052604160045260246000fd5b600082601f8301126200034657600080fd5b813567ffffffffffffffff808211156200036457620003646200031e565b604051601f8301601f19908116603f011681019082821181831017156200038f576200038f6200031e565b81604052838152866020858801011115620003a957600080fd5b836020870160208301376000602085830101528094505050505092915050565b600080600060608486031215620003df57600080fd5b833567ffffffffffffffff80821115620003f857600080fd5b620004068783880162000334565b945060208601359150808211156200041d57600080fd5b506200042c8682870162000334565b925050604084013590509250925092565b6000815180845260005b81811015620004655760208185018101518683018201520162000447565b506000602082860101526020601f19601f83011685010191505092915050565b6001600160a01b0386811682528516602082015260a060408201819052600090620004b3908301866200043d565b8281036060840152620004c781866200043d565b9150508260808301529695505050505050565b602081526000620004ef60208301846200043d565b939250505056fe6101006040523480156200001257600080fd5b5060405162003f1938038062003f19833981016040819052620000359162000467565b6001600055836001600160a01b0381166200006b57604051631e4fbdf760e01b8152600060048201526024015b60405180910390fd5b620000768162000322565b506001600160a01b038516620000c15760405162461bcd60e51b815260206004820152600f60248201526e496e76616c696420666163746f727960881b604482015260640162000062565b6001600160a01b038416620001095760405162461bcd60e51b815260206004820152600d60248201526c24b73b30b634b21037bbb732b960991b604482015260640162000062565b60008351116200015c5760405162461bcd60e51b815260206004820152601560248201527f5469746c652063616e6e6f7420626520656d7074790000000000000000000000604482015260640162000062565b6000825111620001af5760405162461bcd60e51b815260206004820152601b60248201527f4465736372697074696f6e2063616e6e6f7420626520656d7074790000000000604482015260640162000062565b428111620002005760405162461bcd60e51b815260206004820181905260248201527f5265736f6c7574696f6e206d75737420626520696e2074686520667574757265604482015260640162000062565b6001600160a01b03851660805260026200021b848262000592565b5060036200022a838262000592565b5060a08190526040516200023e9062000374565b6040808252600a90820152695965732053686172657360b01b60608201526080602082018190526003908201526259455360e81b60a082015260c001604051809103906000f08015801562000297573d6000803e3d6000fd5b506001600160a01b031660c052604051620002b29062000374565b6040808252600990820152684e6f2053686172657360b81b6060820152608060208201819052600290820152614e4f60f01b60a082015260c001604051809103906000f08015801562000309573d6000803e3d6000fd5b506001600160a01b031660e052506200065e9350505050565b600180546001600160a01b038381166001600160a01b0319831681179093556040519116919082907f8be0079c531659141344cd1fd0a4f28419497f9722a3daafe3b4186f6b6457e090600090a35050565b610c2880620032f183390190565b80516001600160a01b03811681146200039a57600080fd5b919050565b634e487b7160e01b600052604160045260246000fd5b600082601f830112620003c757600080fd5b81516001600160401b0380821115620003e457620003e46200039f565b604051601f8301601f19908116603f011681019082821181831017156200040f576200040f6200039f565b81604052838152602092508660208588010111156200042d57600080fd5b600091505b8382101562000451578582018301518183018401529082019062000432565b6000602085830101528094505050505092915050565b600080600080600060a086880312156200048057600080fd5b6200048b8662000382565b94506200049b6020870162000382565b60408701519094506001600160401b0380821115620004b957600080fd5b620004c789838a01620003b5565b94506060880151915080821115620004de57600080fd5b50620004ed88828901620003b5565b925050608086015190509295509295909350565b600181811c908216806200051657607f821691505b6020821081036200053757634e487b7160e01b600052602260045260246000fd5b50919050565b601f8211156200058d576000816000526020600020601f850160051c81016020861015620005685750805b601f850160051c820191505b81811015620005895782815560010162000574565b5050505b505050565b81516001600160401b03811115620005ae57620005ae6200039f565b620005c681620005bf845462000501565b846200053d565b602080601f831160018114620005fe5760008415620005e55750858301515b600019600386901b1c1916600185901b17855562000589565b600085815260208120601f198616915b828110156200062f578886015182559484019460019091019084016200060e565b50858210156200064e5787850151600019600388901b60f8161c191681555b5050505050600190811b01905550565b60805160a05160c05160e051612b646200078d60003960008181610256015281816107ab01528181610ae701528181610d0701528181610f390152818161107d0152818161128d0152818161148c0152818161178b015281816118f801528181611aa401528181611dd001528181611ee2015281816121190152818161225a015281816124280152818161253401526126f001526000818161020a0152818161066a015281816107250152818161097901528181610a6101528181610c7801528181610e5b01528181610ff70152818161120601528181611406015281816115f90152818161170501528181611a0e01528181611bb801528181611ccb015281816121d4015281816124ae0152612669015260008181610311015261051c015260006103ed0152612b646000f3fe60806040526004361061016a5760003560e01c80639b34ae03116100d1578063c45a01551161008a578063dbb3f53711610064578063dbb3f5371461045c578063e8078d9414610476578063f2fde38b1461047e578063f7d0ba321461049e57600080fd5b8063c45a0155146103db578063c545ab541461040f578063d7c4d3b31461042f57600080fd5b80639b34ae03146103515780639ba629d4146103805780639d7de6b3146103965780639e075449146103b6578063a9709c0c146103be578063be040fb0146103c657600080fd5b80635b7c2dad116101235780635b7c2dad1461029a578063715018a6146102d55780637284e416146102ea57806385af5d35146102ff5780638779086f146101e35780638da5cb5b1461033357600080fd5b80630bede3f81461018e57806311f957fd146101b057806312b01b16146101e357806316953f02146101f857806327c7ff61146102445780634a79d50c1461027857600080fd5b3661018957346005600082825461018191906128a7565b925050819055005b600080fd5b34801561019a57600080fd5b506101ae6101a93660046128ba565b6104ba565b005b3480156101bc57600080fd5b506101d06101cb3660046128e3565b6105e1565b6040519081526020015b60405180910390f35b3480156101ef57600080fd5b506101d0610a5c565b34801561020457600080fd5b5061022c7f000000000000000000000000000000000000000000000000000000000000000081565b6040516001600160a01b0390911681526020016101da565b34801561025057600080fd5b5061022c7f000000000000000000000000000000000000000000000000000000000000000081565b34801561028457600080fd5b5061028d610bc4565b6040516101da91906128fc565b3480156102a657600080fd5b506102ba6102b536600461294b565b610c52565b604080519384526020840192909252908201526060016101da565b3480156102e157600080fd5b506101ae610d95565b3480156102f657600080fd5b5061028d610da9565b34801561030b57600080fd5b506101d07f000000000000000000000000000000000000000000000000000000000000000081565b34801561033f57600080fd5b506001546001600160a01b031661022c565b34801561035d57600080fd5b5060045461037090610100900460ff1681565b60405190151581526020016101da565b34801561038c57600080fd5b506101d060055481565b3480156103a257600080fd5b506101d06103b1366004612974565b610db6565b6101ae6113b7565b6101ae6116b6565b3480156103d257600080fd5b506101d06119a4565b3480156103e757600080fd5b5061022c7f000000000000000000000000000000000000000000000000000000000000000081565b34801561041b57600080fd5b506101d061042a3660046128e3565b612090565b34801561043b57600080fd5b506101d061044a36600461294b565b60066020526000908152604090205481565b34801561046857600080fd5b506004546103709060ff1681565b6101ae61245f565b34801561048a57600080fd5b506101ae61049936600461294b565b6127aa565b3480156104aa57600080fd5b506101d0670de0b6b3a764000081565b6104c26127e8565b60045460ff161561051a5760405162461bcd60e51b815260206004820152601760248201527f4d61726b657420616c7265616479207265736f6c76656400000000000000000060448201526064015b60405180910390fd5b7f000000000000000000000000000000000000000000000000000000000000000042101561058a5760405162461bcd60e51b815260206004820152601b60248201527f5265736f6c7574696f6e2074696d65206e6f74207265616368656400000000006044820152606401610511565b600480548215156101000261ffff199091161760011790556040517ff528f3b02f5c2503827fc677c9d0cb54ffbf11ed32cb659f73243b70dea7cf0e906105d690831515815260200190565b60405180910390a150565b60006105eb612815565b60045460ff161561060e5760405162461bcd60e51b815260040161051190612996565b600082116106535760405162461bcd60e51b81526020600482015260126024820152710416d6f756e74206d757374206265203e20360741b6044820152606401610511565b6040516370a0823160e01b815233600482015282907f00000000000000000000000000000000000000000000000000000000000000006001600160a01b0316906370a0823190602401602060405180830381865afa1580156106b9573d6000803e3d6000fd5b505050506040513d601f19601f820116820180604052508101906106dd91906129c2565b10156107215760405162461bcd60e51b8152602060048201526013602482015272496e73756666696369656e742073686172657360681b6044820152606401610511565b60007f00000000000000000000000000000000000000000000000000000000000000006001600160a01b03166318160ddd6040518163ffffffff1660e01b8152600401602060405180830381865afa158015610781573d6000803e3d6000fd5b505050506040513d601f19601f820116820180604052508101906107a591906129c2565b905060007f00000000000000000000000000000000000000000000000000000000000000006001600160a01b03166318160ddd6040518163ffffffff1660e01b8152600401602060405180830381865afa158015610807573d6000803e3d6000fd5b505050506040513d601f19601f8201168201806040525081019061082b91906129c2565b90508382101561087d5760405162461bcd60e51b815260206004820152601f60248201527f496e73756666696369656e74205965732073686172657320696e20706f6f6c006044820152606401610511565b8382036108ad5761088e81836128a7565b8460055461089c91906129db565b6108a691906129f2565b92506108ce565b6108b78483612a14565b6108c182866129db565b6108cb91906129f2565b92505b600083116108ee5760405162461bcd60e51b815260040161051190612a27565b8260055410156109105760405162461bcd60e51b815260040161051190612a54565b82600560008282546109229190612a14565b909155505033600090815260066020526040902054831161096257336000908152600660205260408120805485929061095c908490612a14565b90915550505b604051632770a7eb60e21b81526001600160a01b037f00000000000000000000000000000000000000000000000000000000000000001690639dc29fac906109b09033908890600401612a8b565b600060405180830381600087803b1580156109ca57600080fd5b505af11580156109de573d6000803e3d6000fd5b50506040516000925033915085908381818185875af1925050503d8060008114610a24576040519150601f19603f3d011682016040523d82523d6000602084013e610a29565b606091505b5050905080610a4a5760405162461bcd60e51b815260040161051190612aa4565b505050610a576001600055565b919050565b6000807f00000000000000000000000000000000000000000000000000000000000000006001600160a01b03166318160ddd6040518163ffffffff1660e01b8152600401602060405180830381865afa158015610abd573d6000803e3d6000fd5b505050506040513d601f19601f82011682018060405250810190610ae191906129c2565b905060007f00000000000000000000000000000000000000000000000000000000000000006001600160a01b03166318160ddd6040518163ffffffff1660e01b8152600401602060405180830381865afa158015610b43573d6000803e3d6000fd5b505050506040513d601f19601f82011682018060405250810190610b6791906129c2565b9050811580610b74575080155b80610b7f5750600554155b15610b9457670de0b6b3a76400009250505090565b610b9e81836128a7565b600554610bb390670de0b6b3a76400006129db565b610bbd91906129f2565b9250505090565b60028054610bd190612acd565b80601f0160208091040260200160405190810160405280929190818152602001828054610bfd90612acd565b8015610c4a5780601f10610c1f57610100808354040283529160200191610c4a565b820191906000526020600020905b815481529060010190602001808311610c2d57829003601f168201915b505050505081565b6040516370a0823160e01b81526001600160a01b038281166004830152600091829182917f0000000000000000000000000000000000000000000000000000000000000000909116906370a0823190602401602060405180830381865afa158015610cc1573d6000803e3d6000fd5b505050506040513d601f19601f82011682018060405250810190610ce591906129c2565b6040516370a0823160e01b81526001600160a01b0386811660048301529194507f0000000000000000000000000000000000000000000000000000000000000000909116906370a0823190602401602060405180830381865afa158015610d50573d6000803e3d6000fd5b505050506040513d601f19601f82011682018060405250810190610d7491906129c2565b6001600160a01b039094166000908152600660205260409020549294915050565b610d9d6127e8565b610da7600061283f565b565b60038054610bd190612acd565b6000610dc0612815565b60045460ff1615610de35760405162461bcd60e51b815260040161051190612996565b6000831180610df25750600082115b610e3e5760405162461bcd60e51b815260206004820152601760248201527f4d7573742072656d6f766520736f6d65207368617265730000000000000000006044820152606401610511565b8215610f1c576040516370a0823160e01b815233600482015283907f00000000000000000000000000000000000000000000000000000000000000006001600160a01b0316906370a0823190602401602060405180830381865afa158015610eaa573d6000803e3d6000fd5b505050506040513d601f19601f82011682018060405250810190610ece91906129c2565b1015610f1c5760405162461bcd60e51b815260206004820152601760248201527f496e73756666696369656e7420596573207368617265730000000000000000006044820152606401610511565b8115610ff3576040516370a0823160e01b815233600482015282907f00000000000000000000000000000000000000000000000000000000000000006001600160a01b0316906370a0823190602401602060405180830381865afa158015610f88573d6000803e3d6000fd5b505050506040513d601f19601f82011682018060405250810190610fac91906129c2565b1015610ff35760405162461bcd60e51b8152602060048201526016602482015275496e73756666696369656e74204e6f2073686172657360501b6044820152606401610511565b60007f00000000000000000000000000000000000000000000000000000000000000006001600160a01b03166318160ddd6040518163ffffffff1660e01b8152600401602060405180830381865afa158015611053573d6000803e3d6000fd5b505050506040513d601f19601f8201168201806040525081019061107791906129c2565b905060007f00000000000000000000000000000000000000000000000000000000000000006001600160a01b03166318160ddd6040518163ffffffff1660e01b8152600401602060405180830381865afa1580156110d9573d6000803e3d6000fd5b505050506040513d601f19601f820116820180604052508101906110fd91906129c2565b9050600082118061110e5750600081115b6111475760405162461bcd60e51b815260206004820152600a602482015269506f6f6c20656d70747960b01b6044820152606401610511565b600061115382846128a7565b9050600061116186886128a7565b9050816000036111745760009450611190565b818160055461118391906129db565b61118d91906129f2565b94505b600085116111b05760405162461bcd60e51b815260040161051190612a27565b8460055410156111d25760405162461bcd60e51b815260040161051190612a54565b84600560008282546111e49190612a14565b9091555050861561127057604051632770a7eb60e21b81526001600160a01b037f00000000000000000000000000000000000000000000000000000000000000001690639dc29fac9061123d9033908b90600401612a8b565b600060405180830381600087803b15801561125757600080fd5b505af115801561126b573d6000803e3d6000fd5b505050505b85156112f757604051632770a7eb60e21b81526001600160a01b037f00000000000000000000000000000000000000000000000000000000000000001690639dc29fac906112c49033908a90600401612a8b565b600060405180830381600087803b1580156112de57600080fd5b505af11580156112f2573d6000803e3d6000fd5b505050505b604051600090339087908381818185875af1925050503d8060008114611339576040519150601f19603f3d011682016040523d82523d6000602084013e61133e565b606091505b505090508061135f5760405162461bcd60e51b815260040161051190612aa4565b604080518981526020810189905290810187905233907f1dc8bb69df2b8e91fbdcbfcf93d951b3f0000f085a95fe3f7946d6161439245d9060600160405180910390a250505050506113b16001600055565b92915050565b6113bf612815565b60045460ff16156113e25760405162461bcd60e51b815260040161051190612996565b600034116114025760405162461bcd60e51b815260040161051190612b07565b60007f00000000000000000000000000000000000000000000000000000000000000006001600160a01b03166318160ddd6040518163ffffffff1660e01b8152600401602060405180830381865afa158015611462573d6000803e3d6000fd5b505050506040513d601f19601f8201168201806040525081019061148691906129c2565b905060007f00000000000000000000000000000000000000000000000000000000000000006001600160a01b03166318160ddd6040518163ffffffff1660e01b8152600401602060405180830381865afa1580156114e8573d6000803e3d6000fd5b505050506040513d601f19601f8201168201806040525081019061150c91906129c2565b905060008215801561151c575081155b156115285750346115a7565b816000036115375750346115a7565b61154134836128a7565b61154b84346129db565b61155591906129f2565b9050600081116115a75760405162461bcd60e51b815260206004820152601a60248201527f496e73756666696369656e7420736861726573206f75747075740000000000006044820152606401610511565b34600560008282546115b991906128a7565b909155505033600090815260066020526040812080543492906115dd9084906128a7565b90915550506040516340c10f1960e01b81526001600160a01b037f000000000000000000000000000000000000000000000000000000000000000016906340c10f19906116309033908590600401612a8b565b600060405180830381600087803b15801561164a57600080fd5b505af115801561165e573d6000803e3d6000fd5b505060408051600181526020810185905234918101919091523392507f6ce1f870748af127e987dbf88043a12a0171c5ac302d65c3c79222c51201ca9e91506060015b60405180910390a2505050610da76001600055565b6116be612815565b60045460ff16156116e15760405162461bcd60e51b815260040161051190612996565b600034116117015760405162461bcd60e51b815260040161051190612b07565b60007f00000000000000000000000000000000000000000000000000000000000000006001600160a01b03166318160ddd6040518163ffffffff1660e01b8152600401602060405180830381865afa158015611761573d6000803e3d6000fd5b505050506040513d601f19601f8201168201806040525081019061178591906129c2565b905060007f00000000000000000000000000000000000000000000000000000000000000006001600160a01b03166318160ddd6040518163ffffffff1660e01b8152600401602060405180830381865afa1580156117e7573d6000803e3d6000fd5b505050506040513d601f19601f8201168201806040525081019061180b91906129c2565b905060008215801561181b575081155b156118275750346118a6565b826000036118365750346118a6565b61184034846128a7565b61184a83346129db565b61185491906129f2565b9050600081116118a65760405162461bcd60e51b815260206004820152601a60248201527f496e73756666696369656e7420736861726573206f75747075740000000000006044820152606401610511565b34600560008282546118b891906128a7565b909155505033600090815260066020526040812080543492906118dc9084906128a7565b90915550506040516340c10f1960e01b81526001600160a01b037f000000000000000000000000000000000000000000000000000000000000000016906340c10f199061192f9033908590600401612a8b565b600060405180830381600087803b15801561194957600080fd5b505af115801561195d573d6000803e3d6000fd5b505060408051600081526020810185905234918101919091523392507f6ce1f870748af127e987dbf88043a12a0171c5ac302d65c3c79222c51201ca9e91506060016116a1565b60006119ae612815565b60045460ff166119f65760405162461bcd60e51b815260206004820152601360248201527213585c9ad95d081b9bdd081c995cdbdb1d9959606a1b6044820152606401610511565b6040516370a0823160e01b81523360048201526000907f00000000000000000000000000000000000000000000000000000000000000006001600160a01b0316906370a0823190602401602060405180830381865afa158015611a5d573d6000803e3d6000fd5b505050506040513d601f19601f82011682018060405250810190611a8191906129c2565b6040516370a0823160e01b81523360048201529091506000906001600160a01b037f000000000000000000000000000000000000000000000000000000000000000016906370a0823190602401602060405180830381865afa158015611aeb573d6000803e3d6000fd5b505050506040513d601f19601f82011682018060405250810190611b0f91906129c2565b600454909150610100900460ff1615611d3a5760008211611b665760405162461bcd60e51b81526020600482015260116024820152704e6f2077696e6e696e672073686172657360781b6044820152606401610511565b8015611bb45760405162461bcd60e51b815260206004820152601b60248201527f43616e6e6f742072656465656d206c6f73696e672073686172657300000000006044820152606401610511565b60007f00000000000000000000000000000000000000000000000000000000000000006001600160a01b03166318160ddd6040518163ffffffff1660e01b8152600401602060405180830381865afa158015611c14573d6000803e3d6000fd5b505050506040513d601f19601f82011682018060405250810190611c3891906129c2565b905060008111611c825760405162461bcd60e51b8152602060048201526015602482015274139bc816595cc81cda185c995cc81a5b881c1bdbdb605a1b6044820152606401610511565b8083600554611c9191906129db565b611c9b91906129f2565b93508360056000828254611caf9190612a14565b9091555050604051632770a7eb60e21b81526001600160a01b037f00000000000000000000000000000000000000000000000000000000000000001690639dc29fac90611d029033908790600401612a8b565b600060405180830381600087803b158015611d1c57600080fd5b505af1158015611d30573d6000803e3d6000fd5b5050505050611f4d565b60008111611d7e5760405162461bcd60e51b81526020600482015260116024820152704e6f2077696e6e696e672073686172657360781b6044820152606401610511565b8115611dcc5760405162461bcd60e51b815260206004820152601b60248201527f43616e6e6f742072656465656d206c6f73696e672073686172657300000000006044820152606401610511565b60007f00000000000000000000000000000000000000000000000000000000000000006001600160a01b03166318160ddd6040518163ffffffff1660e01b8152600401602060405180830381865afa158015611e2c573d6000803e3d6000fd5b505050506040513d601f19601f82011682018060405250810190611e5091906129c2565b905060008111611e995760405162461bcd60e51b8152602060048201526014602482015273139bc8139bc81cda185c995cc81a5b881c1bdbdb60621b6044820152606401610511565b8082600554611ea891906129db565b611eb291906129f2565b93508360056000828254611ec69190612a14565b9091555050604051632770a7eb60e21b81526001600160a01b037f00000000000000000000000000000000000000000000000000000000000000001690639dc29fac90611f199033908690600401612a8b565b600060405180830381600087803b158015611f3357600080fd5b505af1158015611f47573d6000803e3d6000fd5b50505050505b60008311611f935760405162461bcd60e51b81526020600482015260136024820152724e6f20616d6f756e7420746f2072656465656d60681b6044820152606401610511565b82471015611fe35760405162461bcd60e51b815260206004820152601d60248201527f496e73756666696369656e7420636f6e74726163742062616c616e63650000006044820152606401610511565b604051600090339085908381818185875af1925050503d8060008114612025576040519150601f19603f3d011682016040523d82523d6000602084013e61202a565b606091505b505090508061204b5760405162461bcd60e51b815260040161051190612aa4565b60405184815233907f4896181ff8f4543cc00db9fe9b6fb7e6f032b7eb772c72ab1ec1b4d2e03b93699060200160405180910390a250505061208d6001600055565b90565b600061209a612815565b60045460ff16156120bd5760405162461bcd60e51b815260040161051190612996565b600082116121025760405162461bcd60e51b81526020600482015260126024820152710416d6f756e74206d757374206265203e20360741b6044820152606401610511565b6040516370a0823160e01b815233600482015282907f00000000000000000000000000000000000000000000000000000000000000006001600160a01b0316906370a0823190602401602060405180830381865afa158015612168573d6000803e3d6000fd5b505050506040513d601f19601f8201168201806040525081019061218c91906129c2565b10156121d05760405162461bcd60e51b8152602060048201526013602482015272496e73756666696369656e742073686172657360681b6044820152606401610511565b60007f00000000000000000000000000000000000000000000000000000000000000006001600160a01b03166318160ddd6040518163ffffffff1660e01b8152600401602060405180830381865afa158015612230573d6000803e3d6000fd5b505050506040513d601f19601f8201168201806040525081019061225491906129c2565b905060007f00000000000000000000000000000000000000000000000000000000000000006001600160a01b03166318160ddd6040518163ffffffff1660e01b8152600401602060405180830381865afa1580156122b6573d6000803e3d6000fd5b505050506040513d601f19601f820116820180604052508101906122da91906129c2565b90508381101561232c5760405162461bcd60e51b815260206004820152601e60248201527f496e73756666696369656e74204e6f2073686172657320696e20706f6f6c00006044820152606401610511565b83810361235c5761233d81836128a7565b8460055461234b91906129db565b61235591906129f2565b925061237d565b6123668482612a14565b61237083866129db565b61237a91906129f2565b92505b6000831161239d5760405162461bcd60e51b815260040161051190612a27565b8260055410156123bf5760405162461bcd60e51b815260040161051190612a54565b82600560008282546123d19190612a14565b909155505033600090815260066020526040902054831161241157336000908152600660205260408120805485929061240b908490612a14565b90915550505b604051632770a7eb60e21b81526001600160a01b037f00000000000000000000000000000000000000000000000000000000000000001690639dc29fac906109b09033908890600401612a8b565b612467612815565b60045460ff161561248a5760405162461bcd60e51b815260040161051190612996565b600034116124aa5760405162461bcd60e51b815260040161051190612b07565b60007f00000000000000000000000000000000000000000000000000000000000000006001600160a01b03166318160ddd6040518163ffffffff1660e01b8152600401602060405180830381865afa15801561250a573d6000803e3d6000fd5b505050506040513d601f19601f8201168201806040525081019061252e91906129c2565b905060007f00000000000000000000000000000000000000000000000000000000000000006001600160a01b03166318160ddd6040518163ffffffff1660e01b8152600401602060405180830381865afa158015612590573d6000803e3d6000fd5b505050506040513d601f19601f820116820180604052508101906125b491906129c2565b9050600080831580156125c5575082155b156125d4575034905080612635565b8315806125df575082155b1561260257836000036125f757503490506000612635565b506000905034612635565b600061260e84866128a7565b90508061261b86346129db565b61262591906129f2565b92506126318334612a14565b9150505b346005600082825461264791906128a7565b909155505081156126d3576040516340c10f1960e01b81526001600160a01b037f000000000000000000000000000000000000000000000000000000000000000016906340c10f19906126a09033908690600401612a8b565b600060405180830381600087803b1580156126ba57600080fd5b505af11580156126ce573d6000803e3d6000fd5b505050505b801561275a576040516340c10f1960e01b81526001600160a01b037f000000000000000000000000000000000000000000000000000000000000000016906340c10f19906127279033908590600401612a8b565b600060405180830381600087803b15801561274157600080fd5b505af1158015612755573d6000803e3d6000fd5b505050505b60408051838152602081018390523481830152905133917f64b83944e79c3ce8d4c297411de637c3e102d064677aac0c163976ebdcd6f50e919081900360600190a250505050610da76001600055565b6127b26127e8565b6001600160a01b0381166127dc57604051631e4fbdf760e01b815260006004820152602401610511565b6127e58161283f565b50565b6001546001600160a01b03163314610da75760405163118cdaa760e01b8152336004820152602401610511565b60026000540361283857604051633ee5aeb560e01b815260040160405180910390fd5b6002600055565b600180546001600160a01b038381166001600160a01b0319831681179093556040519116919082907f8be0079c531659141344cd1fd0a4f28419497f9722a3daafe3b4186f6b6457e090600090a35050565b634e487b7160e01b600052601160045260246000fd5b808201808211156113b1576113b1612891565b6000602082840312156128cc57600080fd5b813580151581146128dc57600080fd5b9392505050565b6000602082840312156128f557600080fd5b5035919050565b60006020808352835180602085015260005b8181101561292a5785810183015185820160400152820161290e565b506000604082860101526040601f19601f8301168501019250505092915050565b60006020828403121561295d57600080fd5b81356001600160a01b03811681146128dc57600080fd5b6000806040838503121561298757600080fd5b50508035926020909101359150565b60208082526012908201527113585c9ad95d081a5cc81c995cdbdb1d995960721b604082015260600190565b6000602082840312156129d457600080fd5b5051919050565b80820281158282048414176113b1576113b1612891565b600082612a0f57634e487b7160e01b600052601260045260246000fd5b500490565b818103818111156113b1576113b1612891565b602080825260139082015272125b9cdd59999a58da595b9d081bdd5d1c1d5d606a1b604082015260600190565b6020808252601b908201527f496e73756666696369656e7420706f6f6c206c69717569646974790000000000604082015260600190565b6001600160a01b03929092168252602082015260400190565b6020808252600f908201526e151c985b9cd9995c8819985a5b1959608a1b604082015260600190565b600181811c90821680612ae157607f821691505b602082108103612b0157634e487b7160e01b600052602260045260246000fd5b50919050565b6020808252600d908201526c135d5cdd081cd95b9908135395609a1b60408201526060019056fea26469706673582212202be806deb6d3530187d5171c33a36129fd2d5928ae6e89796644f9c2ff25ade364736f6c6343000818003360a06040523480156200001157600080fd5b5060405162000c2838038062000c2883398101604081905262000034916200012b565b8181600362000044838262000226565b50600462000053828262000226565b50503360805250620002f2915050565b634e487b7160e01b600052604160045260246000fd5b600082601f8301126200008b57600080fd5b81516001600160401b0380821115620000a857620000a862000063565b604051601f8301601f19908116603f01168101908282118183101715620000d357620000d362000063565b8160405283815260209250866020858801011115620000f157600080fd5b600091505b83821015620001155785820183015181830184015290820190620000f6565b6000602085830101528094505050505092915050565b600080604083850312156200013f57600080fd5b82516001600160401b03808211156200015757600080fd5b620001658683870162000079565b935060208501519150808211156200017c57600080fd5b506200018b8582860162000079565b9150509250929050565b600181811c90821680620001aa57607f821691505b602082108103620001cb57634e487b7160e01b600052602260045260246000fd5b50919050565b601f82111562000221576000816000526020600020601f850160051c81016020861015620001fc5750805b601f850160051c820191505b818110156200021d5782815560010162000208565b5050505b505050565b81516001600160401b0381111562000242576200024262000063565b6200025a8162000253845462000195565b84620001d1565b602080601f831160018114620002925760008415620002795750858301515b600019600386901b1c1916600185901b1785556200021d565b600085815260208120601f198616915b82811015620002c357888601518255948401946001909101908401620002a2565b5085821015620002e25787850151600019600388901b60f8161c191681555b5050505050600190811b01905550565b60805161090c6200031c60003960008181610171015281816102ed015261037e015261090c6000f3fe608060405234801561001057600080fd5b50600436106100b45760003560e01c806370a082311161007157806370a082311461014357806380f556051461016c57806395d89b41146101ab5780639dc29fac146101b3578063a9059cbb146101c6578063dd62ed3e146101d957600080fd5b806306fdde03146100b9578063095ea7b3146100d757806318160ddd146100fa57806323b872dd1461010c578063313ce5671461011f57806340c10f191461012e575b600080fd5b6100c1610212565b6040516100ce9190610755565b60405180910390f35b6100ea6100e53660046107c0565b6102a4565b60405190151581526020016100ce565b6002545b6040519081526020016100ce565b6100ea61011a3660046107ea565b6102be565b604051601281526020016100ce565b61014161013c3660046107c0565b6102e2565b005b6100fe610151366004610826565b6001600160a01b031660009081526020819052604090205490565b6101937f000000000000000000000000000000000000000000000000000000000000000081565b6040516001600160a01b0390911681526020016100ce565b6100c1610364565b6101416101c13660046107c0565b610373565b6100ea6101d43660046107c0565b6103ec565b6100fe6101e7366004610848565b6001600160a01b03918216600090815260016020908152604080832093909416825291909152205490565b6060600380546102219061087b565b80601f016020809104026020016040519081016040528092919081815260200182805461024d9061087b565b801561029a5780601f1061026f5761010080835404028352916020019161029a565b820191906000526020600020905b81548152906001019060200180831161027d57829003601f168201915b5050505050905090565b6000336102b28185856103fa565b60019150505b92915050565b6000336102cc85828561040c565b6102d785858561048b565b506001949350505050565b336001600160a01b037f000000000000000000000000000000000000000000000000000000000000000016146103565760405162461bcd60e51b815260206004820152601460248201527313db9b1e481b585c9ad95d0818d85b881b5a5b9d60621b60448201526064015b60405180910390fd5b61036082826104ea565b5050565b6060600480546102219061087b565b336001600160a01b037f000000000000000000000000000000000000000000000000000000000000000016146103e25760405162461bcd60e51b815260206004820152601460248201527327b7363c9036b0b935b2ba1031b0b710313ab93760611b604482015260640161034d565b6103608282610520565b6000336102b281858561048b565b6104078383836001610556565b505050565b6001600160a01b03838116600090815260016020908152604080832093861683529290522054600019811015610485578181101561047657604051637dc7a0d960e11b81526001600160a01b0384166004820152602481018290526044810183905260640161034d565b61048584848484036000610556565b50505050565b6001600160a01b0383166104b557604051634b637e8f60e11b81526000600482015260240161034d565b6001600160a01b0382166104df5760405163ec442f0560e01b81526000600482015260240161034d565b61040783838361062b565b6001600160a01b0382166105145760405163ec442f0560e01b81526000600482015260240161034d565b6103606000838361062b565b6001600160a01b03821661054a57604051634b637e8f60e11b81526000600482015260240161034d565b6103608260008361062b565b6001600160a01b0384166105805760405163e602df0560e01b81526000600482015260240161034d565b6001600160a01b0383166105aa57604051634a1406b160e11b81526000600482015260240161034d565b6001600160a01b038085166000908152600160209081526040808320938716835292905220829055801561048557826001600160a01b0316846001600160a01b03167f8c5be1e5ebec7d5bd14f71427d1e84f3dd0314c0f7b2291e5b200ac8c7c3b9258460405161061d91815260200190565b60405180910390a350505050565b6001600160a01b03831661065657806002600082825461064b91906108b5565b909155506106c89050565b6001600160a01b038316600090815260208190526040902054818110156106a95760405163391434e360e21b81526001600160a01b0385166004820152602481018290526044810183905260640161034d565b6001600160a01b03841660009081526020819052604090209082900390555b6001600160a01b0382166106e457600280548290039055610703565b6001600160a01b03821660009081526020819052604090208054820190555b816001600160a01b0316836001600160a01b03167fddf252ad1be2c89b69c2b068fc378daa952ba7f163c4a11628f55a4df523b3ef8360405161074891815260200190565b60405180910390a3505050565b60006020808352835180602085015260005b8181101561078357858101830151858201604001528201610767565b506000604082860101526040601f19601f8301168501019250505092915050565b80356001600160a01b03811681146107bb57600080fd5b919050565b600080604083850312156107d357600080fd5b6107dc836107a4565b946020939093013593505050565b6000806000606084860312156107ff57600080fd5b610808846107a4565b9250610816602085016107a4565b9150604084013590509250925092565b60006020828403121561083857600080fd5b610841826107a4565b9392505050565b6000806040838503121561085b57600080fd5b610864836107a4565b9150610872602084016107a4565b90509250929050565b600181811c9082168061088f57607f821691505b6020821081036108af57634e487b7160e01b600052602260045260246000fd5b50919050565b808201808211156102b857634e487b7160e01b600052601160045260246000fdfea2646970667358221220c087862b93bf5df9adcd7470e457d6eabeabf823a3cb4f4dced99ed4e87a0fa264736f6c63430008180033a26469706673582212202e1cbd82acbcf81ef1b97c81cfa6932758324c977f6466f4a435da11a39f1db364736f6c63430008180033",
  "linkReferences": {},
  "deployedLinkReferences": {}
}